{
  "_format": "hh-sol-artifact-1",
  "contractName": "WavePortal",
  "sourceName": "contracts/WavePortal.sol",
  "abi": [
    {
      "inputs": [],
      "stateMutability": "payable",
      "type": "constructor"
    },
    {
      "anonymous": false,
      "inputs": [
        {
          "indexed": true,
          "internalType": "address",
          "name": "from",
          "type": "address"
        },
        {
          "indexed": false,
          "internalType": "uint256",
          "name": "timestamp",
          "type": "uint256"
        },
        {
          "indexed": false,
          "internalType": "string",
          "name": "message",
          "type": "string"
        }
      ],
      "name": "NewWave",
      "type": "event"
    },
    {
      "inputs": [],
      "name": "getAllWaves",
      "outputs": [
        {
          "components": [
            {
              "internalType": "address",
              "name": "walletAddress",
              "type": "address"
            },
            {
              "internalType": "string",
              "name": "message",
              "type": "string"
            },
            {
              "internalType": "uint256",
              "name": "timestamp",
              "type": "uint256"
            }
          ],
          "internalType": "struct WavePortal.Wave[]",
          "name": "",
          "type": "tuple[]"
        }
      ],
      "stateMutability": "view",
      "type": "function"
    },
    {
      "inputs": [
        {
          "internalType": "address",
          "name": "walletAddress",
          "type": "address"
        }
      ],
      "name": "getProfile",
      "outputs": [
        {
          "components": [
            {
              "internalType": "address",
              "name": "walletAddress",
              "type": "address"
            },
            {
              "internalType": "uint8",
              "name": "count",
              "type": "uint8"
            },
            {
              "internalType": "uint256",
              "name": "lastWavedAt",
              "type": "uint256"
            },
            {
              "components": [
                {
                  "internalType": "address",
                  "name": "walletAddress",
                  "type": "address"
                },
                {
                  "internalType": "string",
                  "name": "message",
                  "type": "string"
                },
                {
                  "internalType": "uint256",
                  "name": "timestamp",
                  "type": "uint256"
                }
              ],
              "internalType": "struct WavePortal.Wave[]",
              "name": "waves",
              "type": "tuple[]"
            }
          ],
          "internalType": "struct WavePortal.Waver",
          "name": "",
          "type": "tuple"
        }
      ],
      "stateMutability": "view",
      "type": "function"
    },
    {
      "inputs": [],
      "name": "getTopWavers",
      "outputs": [
        {
          "components": [
            {
              "internalType": "address",
              "name": "walletAddress",
              "type": "address"
            },
            {
              "internalType": "uint8",
              "name": "count",
              "type": "uint8"
            },
            {
              "internalType": "uint256",
              "name": "lastWavedAt",
              "type": "uint256"
            },
            {
              "components": [
                {
                  "internalType": "address",
                  "name": "walletAddress",
                  "type": "address"
                },
                {
                  "internalType": "string",
                  "name": "message",
                  "type": "string"
                },
                {
                  "internalType": "uint256",
                  "name": "timestamp",
                  "type": "uint256"
                }
              ],
              "internalType": "struct WavePortal.Wave[]",
              "name": "waves",
              "type": "tuple[]"
            }
          ],
          "internalType": "struct WavePortal.Waver[10]",
          "name": "",
          "type": "tuple[10]"
        }
      ],
      "stateMutability": "view",
      "type": "function"
    },
    {
      "inputs": [],
      "name": "getTotalWaves",
      "outputs": [
        {
          "internalType": "uint256",
          "name": "",
          "type": "uint256"
        }
      ],
      "stateMutability": "view",
      "type": "function"
    },
    {
      "inputs": [
        {
          "internalType": "string",
          "name": "_message",
          "type": "string"
        }
      ],
      "name": "wave",
      "outputs": [],
      "stateMutability": "nonpayable",
      "type": "function"
    }
  ],
  "bytecode": "0x60806040526014602155655af3107a40006022556200004260405180606001604052806025815260200162002451602591396200006a60201b62000bcf1760201c565b60644244620000529190620001b7565b6200005e919062000254565b602381905550620002fb565b6200010a8160405160240162000081919062000177565b6040516020818303038152906040527f41304fac000000000000000000000000000000000000000000000000000000007bffffffffffffffffffffffffffffffffffffffffffffffffffffffff19166020820180517bffffffffffffffffffffffffffffffffffffffffffffffffffffffff83818316178352505050506200010d60201b60201c565b50565b60008151905060006a636f6e736f6c652e6c6f679050602083016000808483855afa5050505050565b600062000143826200019b565b6200014f8185620001a6565b9350620001618185602086016200021e565b6200016c81620002ea565b840191505092915050565b6000602082019050818103600083015262000193818462000136565b905092915050565b600081519050919050565b600082825260208201905092915050565b6000620001c48262000214565b9150620001d18362000214565b9250827fffffffffffffffffffffffffffffffffffffffffffffffffffffffffffffffff038211156200020957620002086200028c565b5b828201905092915050565b6000819050919050565b60005b838110156200023e57808201518184015260208101905062000221565b838111156200024e576000848401525b50505050565b6000620002618262000214565b91506200026e8362000214565b925082620002815762000280620002bb565b5b828206905092915050565b7f4e487b7100000000000000000000000000000000000000000000000000000000600052601160045260246000fd5b7f4e487b7100000000000000000000000000000000000000000000000000000000600052601260045260246000fd5b6000601f19601f8301169050919050565b612146806200030b6000396000f3fe608060405234801561001057600080fd5b50600436106100575760003560e01c80630f53a4701461005c578063449d46c01461008c5780639a2cdc08146100a8578063bd43a908146100c6578063eb847cec146100e4575b600080fd5b6100766004803603810190610071919061161d565b610102565b6040516100839190611ceb565b60405180910390f35b6100a660048036038101906100a19190611646565b61050b565b005b6100b0610854565b6040516100bd9190611d0d565b60405180910390f35b6100ce61085e565b6040516100db9190611b42565b60405180910390f35b6100ec6109af565b6040516100f99190611b64565b60405180910390f35b61010a61124b565b8173ffffffffffffffffffffffffffffffffffffffff166000808473ffffffffffffffffffffffffffffffffffffffff1673ffffffffffffffffffffffffffffffffffffffff16815260200190815260200160002060000160009054906101000a900473ffffffffffffffffffffffffffffffffffffffff1673ffffffffffffffffffffffffffffffffffffffff161461025b5760405180608001604052808373ffffffffffffffffffffffffffffffffffffffff168152602001600060ff16815260200160008152602001600067ffffffffffffffff811115610217577f4e487b7100000000000000000000000000000000000000000000000000000000600052604160045260246000fd5b60405190808252806020026020018201604052801561025057816020015b61023d61128c565b8152602001906001900390816102355790505b508152509050610506565b6102ec6040518060400160405280601081526020017f2573206861732025642077617665732100000000000000000000000000000000815250836000808673ffffffffffffffffffffffffffffffffffffffff1673ffffffffffffffffffffffffffffffffffffffff16815260200190815260200160002060000160149054906101000a900460ff1660ff16610c68565b6000808373ffffffffffffffffffffffffffffffffffffffff1673ffffffffffffffffffffffffffffffffffffffff1681526020019081526020016000206040518060800160405290816000820160009054906101000a900473ffffffffffffffffffffffffffffffffffffffff1673ffffffffffffffffffffffffffffffffffffffff1673ffffffffffffffffffffffffffffffffffffffff1681526020016000820160149054906101000a900460ff1660ff1660ff1681526020016001820154815260200160028201805480602002602001604051908101604052809291908181526020016000905b828210156104fb57838290600052602060002090600302016040518060600160405290816000820160009054906101000a900473ffffffffffffffffffffffffffffffffffffffff1673ffffffffffffffffffffffffffffffffffffffff1673ffffffffffffffffffffffffffffffffffffffff16815260200160018201805461046090611f80565b80601f016020809104026020016040519081016040528092919081815260200182805461048c90611f80565b80156104d95780601f106104ae576101008083540402835291602001916104d9565b820191906000526020600020905b8154815290600101906020018083116104bc57829003601f168201915b50505050508152602001600282015481525050815260200190600101906103d7565b505050508152505090505b919050565b60008060003373ffffffffffffffffffffffffffffffffffffffff1673ffffffffffffffffffffffffffffffffffffffff168152602001908152602001600020905042600f826001015461055f9190611e68565b1061059f576040517f08c379a000000000000000000000000000000000000000000000000000000000815260040161059690611ccb565b60405180910390fd5b6001602060008282546105b29190611e68565b925050819055506105f96040518060400160405280601681526020017f257320776176656420772f206d657373616765202573000000000000000000008152503384610d07565b600060405180606001604052803373ffffffffffffffffffffffffffffffffffffffff168152602001848152602001428152509050601f81908060018154018082558091505060019003906000526020600020906003020160009091909190915060008201518160000160006101000a81548173ffffffffffffffffffffffffffffffffffffffff021916908373ffffffffffffffffffffffffffffffffffffffff16021790555060208201518160010190805190602001906106bd9291906112c3565b50604082015181600201555050338260000160006101000a81548173ffffffffffffffffffffffffffffffffffffffff021916908373ffffffffffffffffffffffffffffffffffffffff16021790555060018260000160149054906101000a900460ff1661072b9190611ebe565b8260000160146101000a81548160ff021916908360ff1602179055504282600101819055508160020181908060018154018082558091505060019003906000526020600020906003020160009091909190915060008201518160000160006101000a81548173ffffffffffffffffffffffffffffffffffffffff021916908373ffffffffffffffffffffffffffffffffffffffff16021790555060208201518160010190805190602001906107e19291906112c3565b506040820151816002015550506107f782610da6565b3373ffffffffffffffffffffffffffffffffffffffff167f5f7e16dc676677766a70e9c5628aa6c54ddb8b6e5188e2ae1e1f17f1ffbea716428560405161083f929190611d28565b60405180910390a261084f610f3d565b505050565b6000602054905090565b6060601f805480602002602001604051908101604052809291908181526020016000905b828210156109a657838290600052602060002090600302016040518060600160405290816000820160009054906101000a900473ffffffffffffffffffffffffffffffffffffffff1673ffffffffffffffffffffffffffffffffffffffff1673ffffffffffffffffffffffffffffffffffffffff16815260200160018201805461090b90611f80565b80601f016020809104026020016040519081016040528092919081815260200182805461093790611f80565b80156109845780601f1061095957610100808354040283529160200191610984565b820191906000526020600020905b81548152906001019060200180831161096757829003601f168201915b5050505050815260200160028201548152505081526020019060010190610882565b50505050905090565b6109b7611349565b6001600a80602002604051908101604052809291906000905b82821015610bc6578382600302016040518060800160405290816000820160009054906101000a900473ffffffffffffffffffffffffffffffffffffffff1673ffffffffffffffffffffffffffffffffffffffff1673ffffffffffffffffffffffffffffffffffffffff1681526020016000820160149054906101000a900460ff1660ff1660ff1681526020016001820154815260200160028201805480602002602001604051908101604052809291908181526020016000905b82821015610baf57838290600052602060002090600302016040518060600160405290816000820160009054906101000a900473ffffffffffffffffffffffffffffffffffffffff1673ffffffffffffffffffffffffffffffffffffffff1673ffffffffffffffffffffffffffffffffffffffff168152602001600182018054610b1490611f80565b80601f0160208091040260200160405190810160405280929190818152602001828054610b4090611f80565b8015610b8d5780601f10610b6257610100808354040283529160200191610b8d565b820191906000526020600020905b815481529060010190602001808311610b7057829003601f168201915b5050505050815260200160028201548152505081526020019060010190610a8b565b5050505081525050815260200190600101906109d0565b50505050905090565b610c6581604051602401610be39190611b86565b6040516020818303038152906040527f41304fac000000000000000000000000000000000000000000000000000000007bffffffffffffffffffffffffffffffffffffffffffffffffffffffff19166020820180517bffffffffffffffffffffffffffffffffffffffffffffffffffffffff83818316178352505050506110ea565b50565b610d02838383604051602401610c8093929190611c1d565b6040516020818303038152906040527f07c81217000000000000000000000000000000000000000000000000000000007bffffffffffffffffffffffffffffffffffffffffffffffffffffffff19166020820180517bffffffffffffffffffffffffffffffffffffffffffffffffffffffff83818316178352505050506110ea565b505050565b610da1838383604051602401610d1f93929190611bd8565b6040516020818303038152906040527fe0e9ad4f000000000000000000000000000000000000000000000000000000007bffffffffffffffffffffffffffffffffffffffffffffffffffffffff19166020820180517bffffffffffffffffffffffffffffffffffffffffffffffffffffffff83818316178352505050506110ea565b505050565b60005b600a811015610e37578160000160149054906101000a900460ff1660ff16600182600a8110610e01577f4e487b7100000000000000000000000000000000000000000000000000000000600052603260045260246000fd5b6003020160000160149054906101000a900460ff1660ff161015610e2457610e37565b8080610e2f90611fb2565b915050610da9565b600a811015610f395781600182600a8110610e7b577f4e487b7100000000000000000000000000000000000000000000000000000000600052603260045260246000fd5b600302016000820160009054906101000a900473ffffffffffffffffffffffffffffffffffffffff168160000160006101000a81548173ffffffffffffffffffffffffffffffffffffffff021916908373ffffffffffffffffffffffffffffffffffffffff1602179055506000820160149054906101000a900460ff168160000160146101000a81548160ff021916908360ff160217905550600182015481600101556002820181600201908054610f34929190611377565b509050505b5050565b60646023544244610f4e9190611e68565b610f589190611e68565b610f629190611ffb565b602381905550610fa96040518060400160405280601681526020017f52616e646f6d20232067656e6572617465643a20256400000000000000000000815250602354611113565b602154602354116110e857610ff36040518060400160405280600781526020017f257320776f6e2100000000000000000000000000000000000000000000000000815250336111af565b476022541115611038576040517f08c379a000000000000000000000000000000000000000000000000000000000815260040161102f90611c8b565b60405180910390fd5b60003373ffffffffffffffffffffffffffffffffffffffff1660225460405161106090611b2d565b60006040518083038185875af1925050503d806000811461109d576040519150601f19603f3d011682016040523d82523d6000602084013e6110a2565b606091505b50509050806110e6576040517f08c379a00000000000000000000000000000000000000000000000000000000081526004016110dd90611cab565b60405180910390fd5b505b565b60008151905060006a636f6e736f6c652e6c6f679050602083016000808483855afa5050505050565b6111ab8282604051602401611129929190611c5b565b6040516020818303038152906040527f9710a9d0000000000000000000000000000000000000000000000000000000007bffffffffffffffffffffffffffffffffffffffffffffffffffffffff19166020820180517bffffffffffffffffffffffffffffffffffffffffffffffffffffffff83818316178352505050506110ea565b5050565b61124782826040516024016111c5929190611ba8565b6040516020818303038152906040527f319af333000000000000000000000000000000000000000000000000000000007bffffffffffffffffffffffffffffffffffffffffffffffffffffffff19166020820180517bffffffffffffffffffffffffffffffffffffffffffffffffffffffff83818316178352505050506110ea565b5050565b6040518060800160405280600073ffffffffffffffffffffffffffffffffffffffff168152602001600060ff16815260200160008152602001606081525090565b6040518060600160405280600073ffffffffffffffffffffffffffffffffffffffff16815260200160608152602001600081525090565b8280546112cf90611f80565b90600052602060002090601f0160209004810192826112f15760008555611338565b82601f1061130a57805160ff1916838001178555611338565b82800160010185558215611338579182015b8281111561133757825182559160200191906001019061131c565b5b5090506113459190611460565b5090565b604051806101400160405280600a905b61136161124b565b8152602001906001900390816113595790505090565b82805482825590600052602060002090600302810192821561144f5760005260206000209160030282015b8281111561144e5782826000820160009054906101000a900473ffffffffffffffffffffffffffffffffffffffff168160000160006101000a81548173ffffffffffffffffffffffffffffffffffffffff021916908373ffffffffffffffffffffffffffffffffffffffff160217905550600182018160010190805461142790611f80565b61143292919061147d565b50600282015481600201555050916003019190600301906113a2565b5b50905061145c919061150a565b5090565b5b80821115611479576000816000905550600101611461565b5090565b82805461148990611f80565b90600052602060002090601f0160209004810192826114ab57600085556114f9565b82601f106114bc57805485556114f9565b828001600101855582156114f957600052602060002091601f016020900482015b828111156114f85782548255916001019190600101906114dd565b5b5090506115069190611460565b5090565b5b8082111561155c57600080820160006101000a81549073ffffffffffffffffffffffffffffffffffffffff021916905560018201600061154b9190611560565b60028201600090555060030161150b565b5090565b50805461156c90611f80565b6000825580601f1061157e575061159d565b601f01602090049060005260206000209081019061159c9190611460565b5b50565b60006115b36115ae84611d89565b611d58565b9050828152602081018484840111156115cb57600080fd5b6115d6848285611f3e565b509392505050565b6000813590506115ed816120f9565b92915050565b600082601f83011261160457600080fd5b81356116148482602086016115a0565b91505092915050565b60006020828403121561162f57600080fd5b600061163d848285016115de565b91505092915050565b60006020828403121561165857600080fd5b600082013567ffffffffffffffff81111561167257600080fd5b61167e848285016115f3565b91505092915050565b600061169383836119ea565b905092915050565b60006116a78383611a3a565b905092915050565b6116b881611ef5565b82525050565b6116c781611ef5565b82525050565b60006116d882611dd3565b6116e28185611e0e565b9350836020820285016116f485611db9565b8060005b8581101561173057848403895281516117118582611687565b945061171c83611df4565b925060208a019950506001810190506116f8565b50829750879550505050505092915050565b600061174d82611dd3565b6117578185611e1f565b93508360208202850161176985611db9565b8060005b858110156117a557848403895281516117868582611687565b945061179183611df4565b925060208a0199505060018101905061176d565b50829750879550505050505092915050565b60006117c282611dde565b6117cc8185611e30565b9350836020820285016117de85611dc9565b8060005b8581101561181a57848403895281516117fb858261169b565b945061180683611e01565b925060208a019950506001810190506117e2565b50829750879550505050505092915050565b600061183782611de9565b6118418185611e46565b9350611851818560208601611f4d565b61185a816120e8565b840191505092915050565b600061187082611de9565b61187a8185611e57565b935061188a818560208601611f4d565b611893816120e8565b840191505092915050565b60006118ab603483611e57565b91507f547279696e6720746f207769746864726177206d6f7265206d6f6e657920746860008301527f616e2074686520636f6e7472616374206861732e0000000000000000000000006020830152604082019050919050565b6000611911602783611e57565b91507f4661696c656420746f207769746864726177206d6f6e65792066726f6d20636f60008301527f6e74726163742e000000000000000000000000000000000000000000000000006020830152604082019050919050565b6000611977603083611e57565b91507f596f7520776176656420726563656e746c792120506c656173652c207265747260008301527f7920696e203135207365636f6e64732e000000000000000000000000000000006020830152604082019050919050565b60006119dd600083611e3b565b9150600082019050919050565b6000606083016000830151611a0260008601826116af565b5060208301518482036020860152611a1a828261182c565b9150506040830151611a2f6040860182611b00565b508091505092915050565b6000608083016000830151611a5260008601826116af565b506020830151611a656020860182611b1e565b506040830151611a786040860182611b00565b5060608301518482036060860152611a9082826116cd565b9150508091505092915050565b6000608083016000830151611ab560008601826116af565b506020830151611ac86020860182611b1e565b506040830151611adb6040860182611b00565b5060608301518482036060860152611af382826116cd565b9150508091505092915050565b611b0981611f27565b82525050565b611b1881611f27565b82525050565b611b2781611f31565b82525050565b6000611b38826119d0565b9150819050919050565b60006020820190508181036000830152611b5c8184611742565b905092915050565b60006020820190508181036000830152611b7e81846117b7565b905092915050565b60006020820190508181036000830152611ba08184611865565b905092915050565b60006040820190508181036000830152611bc28185611865565b9050611bd160208301846116be565b9392505050565b60006060820190508181036000830152611bf28186611865565b9050611c0160208301856116be565b8181036040830152611c138184611865565b9050949350505050565b60006060820190508181036000830152611c378186611865565b9050611c4660208301856116be565b611c536040830184611b0f565b949350505050565b60006040820190508181036000830152611c758185611865565b9050611c846020830184611b0f565b9392505050565b60006020820190508181036000830152611ca48161189e565b9050919050565b60006020820190508181036000830152611cc481611904565b9050919050565b60006020820190508181036000830152611ce48161196a565b9050919050565b60006020820190508181036000830152611d058184611a9d565b905092915050565b6000602082019050611d226000830184611b0f565b92915050565b6000604082019050611d3d6000830185611b0f565b8181036020830152611d4f8184611865565b90509392505050565b6000604051905081810181811067ffffffffffffffff82111715611d7f57611d7e6120b9565b5b8060405250919050565b600067ffffffffffffffff821115611da457611da36120b9565b5b601f19601f8301169050602081019050919050565b6000819050602082019050919050565b6000819050919050565b600081519050919050565b6000600a9050919050565b600081519050919050565b6000602082019050919050565b6000602082019050919050565b600082825260208201905092915050565b600082825260208201905092915050565b600081905092915050565b600081905092915050565b600082825260208201905092915050565b600082825260208201905092915050565b6000611e7382611f27565b9150611e7e83611f27565b9250827fffffffffffffffffffffffffffffffffffffffffffffffffffffffffffffffff03821115611eb357611eb261202c565b5b828201905092915050565b6000611ec982611f31565b9150611ed483611f31565b92508260ff03821115611eea57611ee961202c565b5b828201905092915050565b6000611f0082611f07565b9050919050565b600073ffffffffffffffffffffffffffffffffffffffff82169050919050565b6000819050919050565b600060ff82169050919050565b82818337600083830152505050565b60005b83811015611f6b578082015181840152602081019050611f50565b83811115611f7a576000848401525b50505050565b60006002820490506001821680611f9857607f821691505b60208210811415611fac57611fab61208a565b5b50919050565b6000611fbd82611f27565b91507fffffffffffffffffffffffffffffffffffffffffffffffffffffffffffffffff821415611ff057611fef61202c565b5b600182019050919050565b600061200682611f27565b915061201183611f27565b9250826120215761202061205b565b5b828206905092915050565b7f4e487b7100000000000000000000000000000000000000000000000000000000600052601160045260246000fd5b7f4e487b7100000000000000000000000000000000000000000000000000000000600052601260045260246000fd5b7f4e487b7100000000000000000000000000000000000000000000000000000000600052602260045260246000fd5b7f4e487b7100000000000000000000000000000000000000000000000000000000600052604160045260246000fd5b6000601f19601f8301169050919050565b61210281611ef5565b811461210d57600080fd5b5056fea2646970667358221220663ebd4463afc2336fbc2e8e63f629e2f8dcc3560444cac70e635a916add07f664736f6c634300080000334275696c64696e672057617665506f7274616c20736d61727420636f6e74726163742e2e2e",
  "linkReferences": {},
  "deployedLinkReferences": {}
}